:1000000080315928203008007E14803120007F087C
:10001000A400111D2B28250012082100A600250090
:1000200011082100A5002508203EA7004E30263DDE
:10003000A80028082500920021002708250091002B
:10004000200011110130A30023082100D70701303F
:10005000AD070030AE3D2000111E34282100111ED6
:1000600034289731A12780312000911E4228210099
:10007000911E42288331042380312000A3002308ED
:100080002100CC002000111F4B282100111F4B28FC
:100090008431002480310B1C54289631F72620002F
:1000A000A30023082100BD0020002408FF007E10CB
:1000B000090080315B28E501E601E701E801E9017B
:1000C000EA01A03084000030850047309631D02608
:1000D000803120308400013085004B309631D026AD
:1000E0008031A03084000130850046309631D02622
:1000F0008031203084000230850036309631D026A1
:100100008031A03084000230850045309631D02601
:100110008031203084000330850029309631D0268C
:100120008031E630840096308500E730860000306C
:10013000870008309631CA267E10200087318C2F28
:1001400020006708D70057082400E400D901B82927
:10015000073020005406031DC9288E138E1FB328B4
:100160002100ED01B6282100ED01ED0A88310120C2
:1001700080312000D7005708CE0021006D088A3159
:100180005522803120000C1CC7280C10C1290C14EA
:10019000C12909305406031DE2282100C301C30A06
:1001A0008A318622803164302000A5000030A6000C
:1001B00006308B31282380312400E4019631B726A4
:1001C0008031C1290A3020005406031DEB289631E6
:1001D000C5268031C129033020005406031D0C2997
:1001E000033055065604031D00292100D101D10A10
:1001F000200068080319C1298B31A1238031C1294E
:100200000630200055065604031DC1290A30D700C8
:1002100057082400D600C129083020005406031DC9
:10022000C129E801E80A210051080319C1298B31CD
:10023000A1238031C1290A3020005406031D27293B
:100240002400E401E40A9631C5268031C129093031
:1002500020005406031D6C299631B32680312000FE
:10026000D70057082400DF009631A72680312000F0
:10027000D70057082400E000E101E20120000E1B36
:1002800044292400E201E20A2400E30120008E1A3E
:100290004C292400E301E30A2100C3012400600883
:1002A0002000D7005708CE00240061082000D800A5
:1002B0005808CF00240062082000D9005908D00057
:1002C000240063082000DA005A08D10024005F08E7
:1002D0008D3148258031C129033020005406031D8B
:1002E000A929033055065604031D81292100D10197
:1002F000D10A200068080319C1298B31A12380315C
:10030000C1290530200055065604031D8F29210000
:100310004308031DC1298B31A1238031C129063037
:10032000200055065604031DC1290A30D70057087E
:100330002400DC005C082000C60024005D082000CA
:10034000C70024005E082000C800973118278031BC
:10035000C129083020005406031DC129E801E80A1C
:10036000210051080319C1298B31A1238031C129F2
:1003700020006708003A03191B29013A0319A8282D
:10038000C129240064082000D7005708E700240092
:1003900059082000D40024005A082000D500240069
:1003A0005B082000D60008002000D8015808C03E95
:1003B0008600013087000108C9004908D0000130DB
:1003C000C9004908D807FB2A5808C03E86000130FA
:1003D00087000108C9004908CF000130C900490859
:1003E000D8075808C03E8600013087000108C900C0
:1003F0004908D1000130C9004908D807510803193C
:1004000008000830C9004908CC0008005808C03E60
:100410008600013087000108C900CA014908CA00E6
:10042000C90149082100AB0020004A082100AC00A6
:1004300001302000C9004908D8075808C03E86008E
:10044000013087000108C900CA0149082100AB0733
:1004500020004A082100AC3D01302000C9004908B5
:10046000D8075808C03E8600013087000108C9003F
:1004700049082100D20001302000C9004908D807EE
:100480005808C03E8600013087000108C9004908AD
:100490002100CE0001302000C9004908D807210002
:1004A0004E08031D080020005808C03E8600013099
:1004B00087000108C90049082100CF000130200051
:1004C000C9004908D807033021004F06031DF02A50
:1004D00020005808C03E8600013087000108C9008E
:1004E0004908D7000130C9004908D8075808C03E5C
:1004F0008600013087000108C9004908D200013098
:10050000C9004908D8079631AD2681312000C900BD
:100510004908D3005303031DA32A571C08000930C0
:10052000C9004908D4005408C6005508C700560839
:10053000C80097311827813120000C1DA12A0C1109
:1005400008000C1508005308031D08005718B52AA9
:100550000A30C9004908D4005408C6005508C7002D
:100560005608C8009731182708009631B026813107
:10057000003A031DC82A2000520821004206031930
:10058000C82A20008C1CC62A8C1008008C14080075
:100590002000571C0800D718E12A0930C900490873
:1005A000D4005408C6005508C7005608C800973143
:1005B0001827813120000C1DDF2A0C1108000C15B2
:1005C0000800D71C08000A30C9004908D4005408A4
:1005D000C6005508C7005608C800973118270800FC
:1005E000033021004F06031908000A302000C9001B
:1005F0004908D40008005008813A0319062A083A2D
:100600000319E429032B08002000A0012300190886
:10061000F80078082000A2002208F8006908203EAF
:100620008600033087007808810021003908F8002F
:1006300078082000A100E42B8831FD2083317E3032
:1006400020002206031D3C2B2208F8006908203EEA
:10065000860003308700780881000130F8007808B0
:10066000E907A101A10A0A30F0000030F1000230D0
:100670008A31B8228331EF2B8831FD208331EF2B73
:1006800020002208031DE12B0130F8007808E9075B
:100690000230F8007808A1000A30F0000030F100C4
:1006A00002308A31B8228331EF2B20002208F80073
:1006B00078082100D3005308043EF8007808D400DD
:1006C0000130F80078082000E9072100BE0103305E
:1006D000F80078082000A1000A30F0000030F10096
:1006E00002308A31B8228331EF2B21005408FF3EBB
:1006F000F800FF3003180030F9007908803A803C98
:10070000031D852B7808200069020318982B200010
:100710002208F80078082100BE0720002208F8000F
:100720006908FD3EA03E86000230870078088100FF
:100730000130F80078082000E90721005408FF3E46
:10074000F800FF3003180030F9002000690878062F
:100750007904031DAF2B0430F8007808A1000A309B
:10076000F0000030F10002308A31B8228331EF2BE3
:10077000023088314820833121003E08F800F90119
:10078000F809F909F80A0319F90A7808FF3EFA008E
:100790000030793DFB00200022087A067B04031D0F
:1007A000DE2B21005308F8007808F000A0309731C4
:1007B000772783312000A001A00AE12B8831FD209A
:1007C00083312000A101EF2B21003908840005307E
:1007D00004020318EF2B90310435003E8200200004
:1007E0002108F80078082100B900293020006906A6
:1007F000031DFD2BE9018831FD20200020080800A1
:1008000021001C08FC001B08FB00B62C7C08F8002B
:100810007B08F7000430F900780DF80CF70CF90BA1
:100820000C2C7708513EFA007A08FD004508031D9C
:100830001E2C7D03FF3AF7007708D50080307D0538
:10084000F700F80180305605F900FA0178087A06B9
:10085000031D2C2C770879060319412C7D08F00024
:10086000F101F01BF1039731482784317108803A78
:10087000F70080307702031D3F2C78307002031898
:10088000462C7D08F70077082100D6008330F7005A
:10089000770821009D053030B22C7C08F8007B08D9
:1008A000F7000430F900780DF80CF70CF90B532C15
:1008B00077084F3EFA007A08FD004508031D672CB3
:1008C0007D03FF3AF7007708C000C501C50A8030F4
:1008D0007D05F700F80180304105F900FA0178083C
:1008E0007A06031D752C7708790603198A2C7D0872
:1008F000F000F101F01BF1039731482784317108B2
:10090000803AF70080307702031D882C783070021F
:100910000318932C80307D060319932C7D08F70073
:1009200077082100C1008330F700770821009D057A
:100930009D16CA2C7C08F8007B08F7000430F900EB
:10094000780DF80CF70CF90BA02C7708FA007A0850
:10095000FD007D08F7007708C8008330F7007708AE
:100960009D052830F70077089D04CA2C1D087C39A6
:10097000F700F8017808003A0319BF2CCA2C770851
:10098000203A03199A2C083A0319062C183A03192D
:100990004D2CCA2C0130F0000030F10004308A31B7
:1009A000B8220230F70077082000E5001113080094
:1009B0000134003402340034043400340834003488
:1009C0001034003420340034403400348034003497
:1009D0000034013400340234003404340034083468
:1009E0000034103400342034003440340034803477
:1009F0000C34173424341734303417341834173483
:100A00003C34173418341734183417343C34173442
:100A10000034003400340034003400340034003436
:100A20000034003400340034003400340034003426
:100A30002034093425340A34E734173439340E3479
:100A40009934093463340B34DB3408348C34173470
:100A5000C6340934A0340034203402340634D83487
:100A6000003404343234023404343E340234043466
:100A70004A34023404340034013401340234023480
:100A800002340234033403340334033403340334B0
:100A9000033403346D3409340C3417344634613470
:100AA00069346C346534643420346F346E342034EB
:100AB00061347434743465346D3470347434203477
:100AC00074346F34203450346F34733474340A34D3
:100AD00000344634613469346C3465346434203411
:100AE0006F346E3420344E3455344C344C3420340E
:100AF00070346F3469346E347434653472340A344B
:100B000000344634613469346C34653464342034E0
:100B100049346E3469347434693461346C34693402
:100B20007A346134743469346F346E340A34003486
:100B30004F3474346834653472342034463461344C
:100B400069346C347534723465340A3400340130DD
:100B50002000C90049082100C4074408031DB62D20
:100B600001302000C90049082100C407C401203019
:100B70002000A5000130A6000030A700A8002A3000
:100B8000A9000030AA008831142085312100B70166
:100B90007E302000C90049082200A000A1012000E9
:100BA0006A08053EC90049082200A200A301A30A61
:100BB00023082000C90049082100B7074408200085
:100BC000C90049082200A40024082000C9004908DF
:100BD0002100B7076B082000C90049082200A600C1
:100BE00026082000C90049082100B7076C0820002A
:100BF000C90049082200A50025082000C9004908AD
:100C00002100B7072200A70127082000C9004908D2
:100C10002100B7072000CD016A084D020318302ECD
:100C20004D084A3E8600013087000108C9004D0882
:100C3000083E203E860001308700490881004D08AB
:100C4000083E203E8600013087000108C90049089F
:100C50002100B70701302000C9004908CD070C2E3C
:100C600021003703FF3AFF3E2000C9004908210058
:100C7000B70037082000C9006A08083E203E8600F9
:100C800001308700490881006A08093EC900490807
:100C90002100B80008302000C9004908CA004A08ED
:100CA000C6004B08C7004C08C80097311827080039
:100CB00020004C08A8004B08A7009631D6268631A4
:100CC0002000D501053055020318F62E5508CD0039
:100CD000CE01CD35CE0DCD35CE0D18304D0784006B
:100CE00085304E3D85001200CF001200CF0403195D
:100CF000922E5508CD00CE01CD35CE0DCD35CE0D81
:100D00004D08023ECF0000304E3DD00018304F0756
:100D100084008530503D85001200D1001200D104BE
:100D2000031D942E033008005508CD00CE014D0858
:100D3000AC004E08AD000330AE000030AF0088318B
:100D40006420863120002D0885002C0884002C307A
:100D500084078530853D003FB200013FB300550850
:100D6000D000D1015008AC005108AD000330AE00F6
:100D70000030AF0088316420863120002C08023E0C
:100D8000D20000302D3DD3002C3052078400853036
:100D9000533D85000008D4005408B40088312D204C
:100DA000863120005508CD004D08C6005508CE00FC
:100DB000CF01CE35CF0DCE35CF0D18304E07840084
:100DC00085304F3D8500013F8A00003F0A00863193
:100DD000013A0319ED2E0530080001302000CD0046
:100DE0004D08D50705305502031C662E003008005B
:100DF0007D2F21002A082000A600210029082000BC
:100E0000A5008C31682486312000E10061082200B1
:100E1000ED006D082000E100E2016108AC0062080D
:100E2000AD000330AE000030AF0088316420863161
:100E300020002D0885002C0884002C308407853084
:100E4000853D003F2200EB00013FEC006C082000D4
:100E5000B30022006B082000B200E430E10061081A
:100E6000B4008F3175278631003A031D512F2200BF
:100E70006D082000E100E201E135E20DD8306107A4
:100E800084008430623D8500003FE300013FE400C0
:100E9000E309E40963082100A90520006408210092
:100EA000AA05210064082000D40021006508200064
:100EB000D500210066082000D60022006D08200021
:100EC000E100E201E135E20DE135E20D6108023EAB
:100ED000E3000030623DE400183063078400853091
:100EE000643D8500013F8A00003F0A0087312000F1
:100EF000540803197D2F02300800893146218631BC
:100F0000003A0319882F210029082A04031DF92E0D
:100F100088319D2086317D2F21009915191699164B
:100F2000191720008C018D018E0122008C018D018A
:100F30008E0123008C0107308D008E0121008C0171
:100F4000BF308D00E3308E0020000C108C100C158B
:100F50003F30CB009C30CC008631582687312100B1
:100F6000EF006F082200EE006E08031DE42F8631AB
:100F7000F82687312100EF006F082200EE00E42FF1
:100F80004E302000A5008530A600883180208731B2
:100F9000F02F69302000A5008530A6008831802020
:100FA0008731F02F81302000A5008530A6008831E0
:100FB00080208731F02F98302000A5008530A600D2
:100FC000883180208731F02F22006E08013A031902
:100FD000C02F023A0319C92F063A0319D22FDB2F6B
:100FE000F02F23001E119F119C0133309B001E1314
:100FF0001E129D179E1622001D15210011120800B9
:10100000080040302000A5000030A600210048085C
:101010002000AE00AF012E08A7002F08A8008D31D8
:10102000E72520002508080020002608AC00250838
:10103000AB000130A9020030AA3B290A03192A0A91
:10104000031908002B0886002C0887002708810058
:101050000130AB070030AC3D192820003308B70041
:101060003208B6003408FF3EB5003608860037085F
:10107000870035088100360886003708870041312F
:101080008101360886003708870042318101080057
:10109000F40010307402031808007408F000F10125
:1010A000F035F10DD830700784008430713D850033
:1010B000003FF200013FF300F209F309720821003A
:1010C000AF057308B00508002000B001B1012C1C69
:1010D0006D282E08B0072F08B13D0130AE35AF0D99
:1010E000890B6E280130AD36AC0C890B73282C08A7
:1010F0002D04031D67283108AD003008AC0008003E
:1011000027302000A7002708AA0020002608A800F2
:101110002508A700A50A0319A60A2708840028089D
:1011200085000008A9002908AB002B080319080056
:101130002B0888310020883185282000D1015108F2
:10114000031D08005108CF00D001CF35D00D4A3023
:101150004F0784008530503D8500013F8A00003FE5
:101160000A008831013A0319080001302000CF003D
:101170004F08D1079F282000A8000830A6002608A5
:10118000A900AA012808A6000730A636890BC528A1
:101190002A352604A7002708AA000310A80D250851
:1011A0002A02031CD5282508AA020130A902031D22
:1011B000C2282A08080020004608C7004708210066
:1011C000BA009731662788312100B901023020002A
:1011D000C7004708C8004808BC004908BD004A08C5
:1011E000BE0021003A088C31AE248831013A031D3B
:1011F000FB2801300800003008002030F0000330E8
:10120000F1000030F200F3002930F4000030F50066
:101210009731B7278831A030F0000230F10000305C
:10122000F200F3002530F4000030F5009731B727C5
:101230002100BE012000E9012100D301D4010800F2
:1012400020004608C70047082100BC0032302000BB
:10125000A5000030A60000308B31282389310230F0
:101260002000C7004708C8004808BC004908BD0066
:101270004A08BE0021003C088C31AE248931013A75
:10128000031D4429013008000030080021005708E0
:10129000031951298E31ED26893101302100D70201
:1012A00046294C08031959298131D421893121005B
:1012B000CC013D0803196B2907302000D9005908DB
:1012C000DA005A08C6005B08C7005C08C8009731FE
:1012D00018272100BD01013008002000CA01963105
:1012E000C02689312000C9004908CE004E082100DF
:1012F0004706031990292000CA01CA0A4E030319A0
:1013000083290630852905302000C9004908CB0013
:101310004B08C6004C08C7004D08C8009731242769
:1013200020004E08C90049082100C70020004A08D3
:10133000080020004608C70047082100B300973185
:10134000CF27893102302000C7004708E50001306F
:10135000A5000030A60004308B31282389310230EB
:101360002000C7004708C8004808BC004908BD0065
:101370004A08BE00210033088C31AE248931013A7D
:10138000031DC42901300800003008002000460871
:10139000C70047082100B6002000E701E70A8731AF
:1013A000F12789319631BB26893114302000A50000
:1013B0000030A60003308B31282389310230200011
:1013C000C7004708C8004808BC004908BD004A08D3
:1013D000BE00210036088C31AE248931013A031D4C
:1013E000F329013008000030080000302000B00070
:1013F0000030AF000030AE000030AD00251C082AE0
:101400002908AD072A08AE3D2B08AF3D2C08B03D9A
:101410000130A935AA0DAB0DAC0D890B092A01309D
:10142000A836A70CA60CA50C890B102A280827049F
:1014300026042504031DFE293008A8002F08A70054
:101440002E08A6002D08A50008002000D7010330B3
:101450005406031D4D2A55085604031D4D2A963186
:10146000AD268A31003A031D382A20000C14402A88
:101470009631AD268A31013A031D402A20000C1016
:1014800020000E1F452A0C15462A0C113230A500EB
:101490000030A60000308B31282320005708D400EC
:1014A0005808D5005908D60008002000D0004A305E
:1014B000A5000130A6000030A700A8002130A90037
:1014C0000030AA00883114208A31FF302100EB005F
:1014D000FF30EC002200CA0120005008031D762ACC
:1014E0007F30CF004F082200CB05782A2200CB178F
:1014F00020004E08CF004F082200CB04023020000D
:10150000CF004F08EA008531A72508004A302000A7
:10151000A5000130A6000030A700A8002130A900D6
:101520000030AA00883114208A318A31F0228A31B1
:1015300021002C08EC002B08EB002200CA01CA0A8B
:1015400001304A3E860001308700C53084000230F9
:10155000850020302000CE0012001E00CE0BAC2AE9
:1015600021302000CE004E08EA008531A725080072
:10157000F60010307602031808007608F200F30136
:10158000F235F30DF830720784008430733D850026
:101590001200F4001200F40403190800700871042A
:1015A000031908007635A03E8600013087007008D8
:1015B000C03F7108C13F7608F200F301F235F30D28
:1015C000D830720784008430733D8500003FF400FA
:1015D000013FF50074082100AF047508B00408004D
:1015E0009631DE268A3120002808AA002708A900A3
:1015F000973101278A312000B901BA013A08803AAF
:10160000B80080303802031D072B20303902031840
:10161000252B8D3196258A3120003108B8003908F4
:10162000C53E860002308700380881000130B907C6
:101630000030BA3D3A08803AB80080303802031DC5
:10164000232B20303902031C092B2100C60108007E
:101650002000AB0010302B02031808002B08A70055
:10166000A801A735A80DF830270784008430283D4D
:1016700085001200A9001200A9040319080025081A
:101680002604031908002B35A03E86000130870090
:101690002508C03F2608C13F2B08A700A801A73591
:1016A000A80DD830270784008430283D8500003FEE
:1016B000A900013FAA0029082100AF0420002A0840
:1016C0002100B004080020006508D7005708DB009F
:1016D000D8016508031D822B03305406031D952B8A
:1016E0000A3055065604031D952B0230D7005708C3
:1016F000DB000130A5000030A60004308B31282328
:101700008B31952B023020006506031D952B03308D
:101710005406031D952B043055065604031D952BC6
:1017200021009D142000DB01DB0A20005B08D700AC
:101730005708E5005808D4005908D5005A08D600C3
:101740000800803102208B312000AC002C082100E1
:10175000CA009631AA268B312000AC002C0821004B
:10176000CB00D001200068080319D52B1430A50048
:101770000030A60003308B3128238B310A30200043
:10178000A5000030A60005308B3128238B31643052
:101790002000A5000030A60006308B3128238B31B5
:1017A0002000E8012100D101DD2B0A302000A50036
:1017B0000030A60005308B312823210011160800C7
:1017C0002000A601A7012708803AA5008030250245
:1017D000031DEC2B0530260203181A2C21004608A5
:1017E0001F39C53E860002308700200026084A3E89
:1017F00084000130850000080106A50026084A3E45
:10180000860001308700250881000130A5002508E9
:101810002100C60701302000A6070030A73D270899
:10182000803AA50080302502031D182C05302602C1
:10183000031CEE2B22004E082000A50025082100E5
:10184000C20008002000AB01A81F2D2CA709A80981
:10185000A70A0319A80AAB01AB0AA61F342CA509D5
:10186000A609A50A0319A60A2508260403195B2C54
:10187000AA01AA0AA61B462C0130A535A60D890B84
:101880003D2C0130A9002908AA073A2C2608280275
:10189000031D4C2C25082702031C522C2508A702E7
:1018A0002608A83B0130A636A50C890B532C013025
:1018B000AA02031D462C2B080319632CA709A809AB
:1018C000A70A0319A80A2808A6002708A5000800E7
:1018D00080302000A7002708AB000330A7002708AE
:1018E000AD00AD1BAC2C2608A8002508A7002D08CC
:1018F000A9000130A935FF3E031D7A2C2935890A3C
:10190000832CA836A70C890B812C27080F39AA0035
:101910002A08AC002C080319A62C2D08A7000230B9
:10192000A735890B902C2C08FF3EA800FF30031828
:101930000030A9003B30280784008530293D850010
:1019400000082707AA002A08AB00AC2CFF30A7002C
:101950002708AD07AD1F732C2B0808002000C50019
:10196000053045020318F82C4508BF00C0013F08A8
:10197000AC004008AD000330AE000030AF0088314D
:1019800064208C3120002D0885002C0884002C3028
:1019900084078530853D003FC300013FC4004408F3
:1019A000B3004308B2003C08B4003D08B5003E084F
:1019B000B6008E3190268C31013A031DF82C2000A0
:1019C0004508BF00C001BF35C00DD8303F078400B7
:1019D0008430403D8500003FC100013FC200410806
:1019E0002100A904200042082100AA0401300800B7
:1019F000003008002000C50105304502031808002A
:101A00004508BF00C0013F08AC004008AD000330EE
:101A1000AE000030AF00883164208C3120002D08EA
:101A200085002C0884002C3084078530853D003FDC
:101A3000C300013FC4004408B3004308B2003C089F
:101A4000B4003D08B5003E08B6008E3190268C31BA
:101A5000013A031D080020004508BF00C001BF3542
:101A6000C00DD8303F0784008430403D8500003FE2
:101A7000C100013FC20041082100A9042000420822
:101A80002100AA0401302000BF003F08C507FC2C3C
:101A90002000D3004A30A5000130A6000030A70086
:101AA000A8002130A9000030AA00883114208D310F
:101AB00021002C08EC002B08EB0002302000D200A3
:101AC00052082200CA0020005308D2005208220007
:101AD000CB0020004E08D20052082200CC0020008B
:101AE0004F080319752D22004D15200050080319C9
:101AF0007B2D2200CD14200051080319812D2200D6
:101B00004D1422004B084C074D074A072000D20015
:101B100052082200CE0005302000D2005208EA0010
:101B20008B31E0238D318531A725080021006A081B
:101B30002000A800210069082000A70021006808F3
:101B40002000A600210067082000A5004130AC005D
:101B5000C630AB004E30AA006D30A9008931F521A6
:101B60008D31200028082100EA00200027082100EC
:101B7000E900200026082100E800200025082100B7
:101B8000E7003930E7073030E83D0030E93D00300C
:101B9000EA3D67082000B300210068082000B40077
:101BA000210069082000B50021006A082000B60065
:101BB0001030B700B637B50CB40CB30CB70BDA2D38
:101BC000FF303305B1007F303405B200080020003B
:101BD000AB01A61FF22DA509A609A50A0319A60A9D
:101BE000AB01AB0AA81FFD2DA709A809A70A031975
:101BF000A80A0130A9002908AB06AC01AD012508EF
:101C0000260403192C2EAA01AA0AA61B112E0130A4
:101C1000A535A60D890B082E0130A9002908AA07B1
:101C2000052E0130AC35AD0D890B122E2608280289
:101C3000031D1C2E25082702031C232E2508A7029E
:101C40002608A83B2C140130A636A50C890B242E9F
:101C50000130AA02031D112E2B080319342EAC09E2
:101C6000AD09AC0A0319AD0A2D08A6002C08A50081
:101C700008007E2E033020005406031D872E21000D
:101C8000B401B40A872E053020005406031D602ECF
:101C90000230A5000030A60001308B3128238E31A0
:101CA0002100B40105302000D7005708D80058089B
:101CB000BC005908BD005A08BE008C31FA248E3190
:101CC000063020005406031D872E0230A500003088
:101CD000A60001308B3128238E312100B40107305A
:101CE0002000D7005708DB005B08BC005C08BD0083
:101CF0005D08BE008C31FA248E31872E2100340815
:101D0000003A03193A2E013A0319432E872E200078
:101D1000DE015E08D4005F08D5006008D600080028
:101D200020003308BB003208BA003A0886003B089E
:101D3000870042313A0884003B0885000008010210
:101D40000318EB2E0B08B7003708B9008B133A08BD
:101D500086003B0887000108B700B8013708A500D6
:101D60003808A6003A0886003B08870042313A0846
:101D700084003B088500013100080107A700A80185
:101D8000A80D8C3122248E3120002508013EAC00A4
:101D90000030263DAD000330AE000030AF0088318A
:101DA000642020002C08320786002D08333D870070
:101DB0003408C03F3508C13F3608C23F0130B70084
:101DC0003A0886003B088700423137088107390806
:101DD0008B00013008000030080021002F0830047B
:101DE000031908003008A4002F08A30024082000CD
:101DF000A600210023082000A5008C3168248E3124
:101E00002000C9004908E6006635A03E8600013082
:101E100087000130810241310030813B7F31160063
:101E20000104031D572F0330C90049082100A000F9
:101E300020006608C900CA0149082100A10020004D
:101E40004A082100A20020082000C6002100210825
:101E50002000C700210022082000C8006608C90031
:101E6000CA01C935CA0DF8304907840084304A3D9B
:101E70008500013F8A00003F0A008F31200066087C
:101E8000C900CA01C935CA0DD83049078400843059
:101E90004A3D8500003FCB00013FCC00CB09CC0977
:101EA0004B082100AF0520004C082100B0052000A0
:101EB0006608C900CA01C935CA0DD830490784006F
:101EC00084304A3D8500003FCB00013FCC00CB0968
:101ED000CC094B082100A30520004C082100A405D3
:101EE0002308240403190800F62E20003308BC0040
:101EF0003208BB003B0886003C08870042310108DD
:101F00000319F32F0B08B5003508B9008B133B08F4
:101F100086003C08870041310108013EAC000030DA
:101F200003180130AD000330AE000030AF0088313F
:101F300064208F3120002C08320786002D08333DA5
:101F40008700403FB500413FB600423FB70034082C
:101F5000860087013508C03F3608C13F3708C23FB9
:101F60000130B5003B0886003C0887004131350848
:101F700081073B0886003C08870041313B0884000C
:101F80003C08850000080102031CE52F3B08860081
:101F90003C0887000108B5003508A5003B0886000D
:101FA0003C088700413101088831BB208F31200077
:101FB000B6003B08013EB70000303C3DB800370892
:101FC000860038088700360881003B0886003C08F8
:101FD00087004231403F0903C03FB5003508BA00D1
:101FE00039088B00FE2F3408860087018101340AEE
:101FF000860087010030C03FC13FBA013A0808009F
:1020000083311C2B8331402B8331552B8331752B2E
:042010008331B82B35
:102D4E0021005608080021003808080020006708F6
:102D5E00080021004308080021004103FF3A080043
:102D6E008B112700980108000330270098008B155F
:102D7E000800003020008C1B013008008B1503303A
:102D8E00270098000800FE0012001E00FE0BCB2E3E
:102D9E000034640080010131890BD12E00342000F3
:102DAE002808A6002708A500973156270800963157
:102DBE00EE2620002608A8002508A70008000134EA
:102DCE0000340034003481342034013405342100C1
:102DDE002E082000A60021002D082000A5000800C6
:102DEE0020000C1CFC2E0C10FD2E0C14270099013B
:102DFE0001300800200029082100E70020002A08E1
:102E0E002100E800E901EA01080020004608BC00A4
:102E1E004708BD004808BE0021003C088C31AE2496
:102E2E00080020004608BC004708BD004808BE0048
:102E3E00210036088C31AE24080020004608BC0064
:102E4E004708BD004808BE00210035088C31AE246D
:102E5E00080020004608BC004708BD004808BE0018
:102E6E0021003A088C31AE24080020004608BC0030
:102E7E004708BD004808BE00210033088C31AE243F
:102E8E000800F11F08007009F2007109F300F20A40
:102E9E000319F30A7208F0007308F10008000430F9
:102EAE002100910040308B000A3025009300013044
:102EBE00910092012130200098008B17080023000A
:102ECE001E119F119C0133309B0022009D14230084
:102EDE009D17210091160B1723001D131D160800B8
:102EEE00F200C03086000130870072088400023084
:102EFE0085007008F10012001E00F10B822F700881
:102F0E00F10071082100CD0008002000D701033028
:102F1E005406031D992F023055065604031D992F92
:102F2E002100B90120005708D4005808D5005908CF
:102F3E00D6000800210050084A07F00070088600ED
:102F4E0001308700010823009A000130F00070085C
:102F5E002100D00750084B06031D0800111208006F
:102F6E007108F7007008F6000130F4020030F53BEE
:102F7E00740A0319750A0319080076088600770883
:102F8E008700720881000130F6070030F73DBB2F35
:102F9E00603021009E009E179D131D14833020006B
:102FAE00A500250821009D0528302000A500250834
:102FBE0021009D0420001113210011170B1708008A
:102FCE0020004608C70047082100B5009631C026EC
:102FDE0097312000C70047082100C700B401023016
:102FEE002000A5000030A60001308B3128230130CF
:022FFE000800C9
:020000040001F9
:02000E00E4FF0D
:00000001FF
