:1000000080313F28013401347E14803120007F0884
:10001000A300111D2A28250012082100A600250092
:1000200011082100A5002508203EA7004E30263DDE
:10003000A80028082500920021002708250091002B
:10004000200011110130A2002208E9070130D20777
:100050000030D33D111E32282100111E3228873175
:10006000EB2780312000911E3A282100911E3A286A
:1000700080317E2020002308FF007E10090080319F
:100080004128FC0150308400003085001A308D3149
:10009000BA258031A03084000030850048308D3191
:1000A000BA25803120308400013085004A308D31FE
:1000B000BA258031A0308400013085004E308D316A
:1000C000BA25803120308400023085002A308D31FD
:1000D000BA258031803102208031EA00803103204E
:1000E0008031EB0021008D31AB258031EE008D3168
:1000F000AC25EF007E1020008531D42D2300190897
:10010000F80078082000A1002108F8007C08A03E33
:10011000860001308700780881005908F8007808C7
:10012000A00042298F31942780317E3020002106A3
:10013000031DB2282108F8007C08A03E860001308B
:100140008700780881000130F8007808FC07A001DA
:10015000A00A0A30F0000030F100023087318A270F
:1001600080314C298F31942780314C29200021087F
:10017000031D3F290130F8007808FC070230F80021
:100180007808A0000A30F0000030F100023087311A
:100190008A2780314C292108F8007808E600660893
:1001A000043EF8007808E8000130F8007808FC0701
:1001B000D8010330F8007808A0000A30F0000030C1
:1001C000F100023087318A2780314C2920006808ED
:1001D000FF3EF800FF3003180030F9007908803A3C
:1001E000803C031DF52878087C02031806292000AE
:1001F0002108F8007808D8072108F8007C08FD3E9F
:10020000C93E860001308700780881000130F8007F
:100210007808FC0720006808FF3EF800FF3003184C
:100220000030F9007C0878067904031D1B2904308E
:10023000F8007808A0000A30F0000030F100023029
:1002400087318A2780314C2902308E31A2268031B5
:1002500020005808F800F901F809F909F80A03190B
:10026000F90A7808FF3EFA000030793DFB002108CA
:100270007A067B0403193F298F31942780312000AF
:10028000A0014C29590884000530040203184C29A8
:1002900088310435003E820020002008F8007808EC
:1002A000D90029307C06031D0800FC018F319427FA
:1002B00008000134003402340034043400340834BB
:1002C000003410340034203400344034003480349E
:1002D0000034003401340034023400340434003477
:1002E00008340034103400342034003440340034F6
:1002F0008034C8340D34D3340D34DE340D3400343E
:10030000003400340034003400340034003400344D
:10031000003400340034003400340034003400343D
:10032000003400340034003400340034003400342D
:100330000034B5340F3474340F3428340E3413348D
:100340000534F7340E34C234073415340F345634C0
:100350000E340034013401340234023402340234E5
:1003600003340334033403340334033403340334D5
:10037000403401340634D934003404345234013466
:1003800004345E3401340434D8340F34C8340D34AA
:100390004634613469346C346534643420346F34E9
:1003A0006E34203461347434743465346D34703494
:1003B0007434203474346F34203450346F347334D4
:1003C00074340A3400344634613469346C3465342E
:1003D000643420346F346E3420344E3455344C340D
:1003E0004C34203470346F3469346E347434653472
:1003F00072340A3400344634613469346C34653400
:100400006434203449346E3469347434693461346A
:100410006C3469347A346134743469346F346E34D2
:100420000A3400344F347434683465347234203400
:100430004634613469346C347534723465340A344A
:10044000003420004B08A7004A08A6008D31C025C3
:1004500082312000CC0104304C020318D32A4C080E
:100460002400CA00CB01CA35CB0DCA35CB0D99305B
:100470004A07840081304B3D85001200CC001200F9
:10048000CC0403195E2A20004C082400CA00CB01CA
:10049000CA35CB0DCA35CB0D4A08023ECC00003020
:1004A0004B3DCD0099304C07840081304D3D850097
:1004B0001200CE001200CE04031D602A0330080093
:1004C00020004C082400CA00CB014A082000AB00E1
:1004D00024004B082000AC000330AD000030AE001B
:1004E0008E31BE26823120002C0885002B08840026
:1004F000B83084078130853D003FB100013FB20034
:100500004C082400CD00CE014D082000AB00240093
:100510004E082000AC000330AD000030AE008E313C
:10052000BE26823120002B08023E2400CF0000307E
:1005300020002C3D2400D000B8304F0784008130CB
:10054000503D85000008D10051082000B3008E31D5
:100550008726823120004C082400CA004A08200067
:10056000C5004C082400CB00CC01CB35CC0DCB35DD
:10057000CC0D99304B07840081304C3D8500013F04
:100580008A00003F0A008231013A0319C92A053066
:10059000080001302400CA004A082000CC070430BB
:1005A0004C02031C2F2A003008005C2B200051084D
:1005B000A5005008A4008631C32682312100E9003D
:1005C00069082200EC006C082100E900EA016908D2
:1005D0002000AB0021006A082000AC000330AD0011
:1005E0000030AE008E31BE26823120002C088500FE
:1005F0002B088400B83084078130853D003F2200FD
:10060000EA00013FEB006B082000B20022006A08FC
:100610002000B100E5302100E90069082000B300A6
:10062000843100248231003A031D302B22006C08F3
:100630002100E900EA01E935EA0D59306907840033
:1006400081306A3D8500003FEB00013FEC00EB0983
:10065000EC096B082000D00521006C082000D105B2
:10066000210065082000C500210066082000C600A2
:10067000210067082000C70022006C082100E90063
:10068000EA01E935EA0DE935EA0D6908023EEB00B9
:1006900000306A3DEC0099306B07840081306C3D7E
:1006A0008500013F8A00003F0A0083312000450891
:1006B00003195C2B023008008D31E9258231003AA4
:1006C0000319672B200050085104031DD62A8F31CF
:1006D000342782315C2BAF302000A4000030A5000D
:1006E0000030A600A7002A30A8000030A9008E31F3
:1006F0006E2683312000DF017E30AC002C08210003
:10070000AF00B00120006508053EAC002C082100B8
:10071000B10020006A08AC002C082100B2003208A9
:100720002000AC002C08DF076B08AC002C0821006F
:10073000B30033082000AC002C08DF0721006E084E
:100740002000AC002C082100B50035082000AC00CA
:100750002C08DF0721006F082000AC002C082100C6
:10076000B40034082000AC002C08DF072100B601DB
:1007700036082000AC002C08DF07AE0165082E0209
:100780000318E02B2E086107AC002C08860001300E
:1007900087000108AD002E08083EAF3E86008701A5
:1007A0002D0881002E08083EAF3E86008701010813
:1007B000AC002C08DF070130AC002C08AE07BE2BC4
:1007C0005F03FF3AFF3EAC002C08DF005F08AC007F
:1007D0006508083EAF3E860087012C088100650849
:1007E000093EAC002C08E7000130AC002C08EB07F8
:1007F0006B08031D08000130AC002C08EB07080053
:1008000020003208BB003108BA003A0886003B08D5
:1008100087004231010803197E2C0B08B40034080C
:10082000B8008B133A0886003B0887004131010865
:10083000013EAB00003003180130AC000330AD00C6
:100840000030AE008E31BE26843120002B083107E7
:1008500086002C08323D8700403FB400413FB50080
:10086000423FB6003308860087013408C03F350890
:10087000C13F3608C23F0130B4003A0886003B0849
:1008800087004131340881073A0886003B08870019
:1008900041313A0884003B08850000080102031C2E
:1008A000702C3A0886003B0887000108B400340821
:1008B000A4003A0886003B088700413101088F31C7
:1008C000542784312000B5003A08013EB6000030BC
:1008D0003B3DB700360886003708870035088100A1
:1008E0003A0886003B0887004231403F0903C03F79
:1008F000B4003408B90038088B00892C330886000E
:1009000087018101330A860087010030C03FC13F63
:10091000B9013908080021002B082C04031908002C
:100920002C08A4002B08A30024082000A500210007
:1009300023082000A4008631C32684312000C8008B
:100940004808D6005635203E860001308700013029
:10095000810241310030813B7F3116000104031DCB
:10096000F52C0330C80048082100A00020005608DC
:10097000C800C90148082100A10020004908210041
:10098000A20020082000C500210021082000C60088
:10099000210022082000C7005608C800C901C83538
:1009A000C90D7930480784008130493D8500013FF9
:1009B0008A00003F0A00843120005608C800C9019F
:1009C000C835C90D5930480784008130493D85003C
:1009D000003FCA00013FCB00CA09CB094A082100E9
:1009E000AB0520004B082100AC0520005608C800CC
:1009F000C901C835C90D5930480784008130493DC7
:100A00008500003FCA00013FCB00CA09CB094A0854
:100A10002100A30520004B082100A405230824047D
:100A200003190800942C602D033020004506031D97
:100A3000692DD401D40A692D05304506031D3D2DCD
:100A40000230A4000030A500013087314F278531E6
:100A50002000D4010530C80048082400CA004A0814
:100A60002000BB0024004B082000BC0024004C08E0
:100A70002000BD0086312F26853106302000450636
:100A8000031D692D0230A4000030A500013087311C
:100A90004F2785312000D4010630C80048082400C3
:100AA000CD004D082000BB0024004E082000BC00F3
:100AB00024004F082000BD0086312F268531692D86
:100AC00020005408003A0319142D013A03191C2D73
:100AD000692D2400D00150082000C50024005108D1
:100AE0002000C600240052082000C7000800200093
:100AF0003208BA003108B900390886003A08870080
:100B00004231390884003A088500000801020318C0
:100B1000D22D0B08B6003608B8008B1339088600B2
:100B20003A0887000108B600B7013608A400370864
:100B3000A500390886003A08870042313908840048
:100B40003A088500013100080107A600A701A70D9A
:100B500087310927853120002408013EAB00003091
:100B6000253DAC000330AD000030AE008E31BE2616
:100B700020002B08310786002C08323D87003308FF
:100B8000C03F3408C13F3508C23F0130B6003908C4
:100B900086003A08870042313608810738088B0002
:100BA0000130080000300800210099151916991627
:100BB000191720008C0122008C0123008C01F830D1
:100BC00021008C0020000C108C100C153F30CA0046
:100BD0009C30CB008231212285312100ED006D084F
:100BE0002200ED006D08031D222E8231D5228531B1
:100BF0002100ED006D082200ED00222EC8302000FB
:100C0000A4008130A5008E31DA2685312E2EE33006
:100C10002000A4008130A5008E31DA2685312E2EE9
:100C2000FB302000A4008130A5008E31DA2685310A
:100C30002E2E12302000A4008230A5008E31DA263C
:100C400085312E2E22006D08013A0319FE2D023A3D
:100C50000319072E063A0319102E192E2E2E2000E6
:100C6000C40104304402031808004408BE00BF0158
:100C70003E08AB003F08AC000330AD000030AE00D2
:100C80008E31BE26863120002C0885002B0884007A
:100C9000B83084078130853D003FC200013FC3006A
:100CA0004308B2004208B1003B08B3003C08B4005E
:100CB0003D08B500853177258631013A031D0800CE
:100CC00020004408BE00BF01BE35BF0D59303E07AD
:100CD000840081303F3D8500003FC000013FC100DE
:100CE0004008D0044108D10401302000BE003E0875
:100CF000C407312E2000C400043044020318C12E62
:100D00004408BE00BF013E08AB003F08AC00033002
:100D1000AD000030AE008E31BE26863120002C089A
:100D200085002B088400B83084078130853D003F62
:100D3000C200013FC3004308B2004208B1003B08B3
:100D4000B3003C08B4003D08B500853177258631F5
:100D5000013A031DC12E20004408BE00BF01BE356C
:100D6000BF0D59303E07840081303F3D8500003F74
:100D7000C000013FC1004008D0044108D104013047
:100D800008000030080080302000A6002608AA00D5
:100D90000330A6002608AC00AC1B072F2508A700CF
:100DA0002408A6002C08A8000130A835FF3E031D2A
:100DB000D52E2835890ADE2EA736A60C890BDC2E07
:100DC00026080F39A9002908AB002B080319012FA9
:100DD0002C08A6000230A635890BEB2E2B08FF3E0F
:100DE000A700FF3003180030A800A93027078400AF
:100DF0008130283D850000082607A9002908AA009F
:100E0000072FFF30A6002608AC07AC1FCE2E2A08FD
:100E100008002000AA01A71F142FA609A709A60AE7
:100E20000319A70AAA01AA0AA51F1B2FA409A5092D
:100E3000A40A0319A50A240825040319422FA901AD
:100E4000A90AA51B2D2F0130A435A50D890B242F30
:100E50000130A8002808A907212F25082702031D13
:100E6000332F24082602031C392F2408A602250844
:100E7000A73B0130A536A40C890B3A2F0130A902FB
:100E8000031D2D2F2A0803194A2FA609A709A60A10
:100E90000319A70A2708A5002608A40008002000B7
:100EA000AA0010302A02031808002A08A600A70189
:100EB000A635A70D7930260784008130273D8500AF
:100EC0001200A8001200A804031908002408250431
:100ED000031908002A35203E8600013087002408C7
:100EE000C03F2508C13F2A08A600A701A635A70DC7
:100EF0005930260784008130273D8500003FA80037
:100F0000013FA90028082100AB0420002908210086
:100F1000AC040800F60010307602031808007608CA
:100F2000F200F301F235F30D79307207840081305D
:100F3000733D85001200F4001200F4040319080048
:100F400070087104031908007635203E86000130D0
:100F500087007008C03F7108C13F7608F200F301B6
:100F6000F235F30D5930720784008130733D8500EE
:100F7000003FF400013FF50074082100AB04750840
:100F8000AC0408002000C90106304506031DE42F0B
:100F90008D31A92587312000C8004808E1008D3136
:100FA000AD2587312000C8004808E50083316B2358
:100FB00087318D31B525873120008C1CE12F8C10B5
:100FC000E42F8C18E42F8C144908C5004A08C60089
:100FD0004B08C700080020006408AF3E8600870168
:100FE000010823009A000130F00070082000E40797
:100FF00064086706031D080021001112080008009C
:10100000803192288031B6288031CB288031E62883
:0410100081312429DD
:101B5200C9300800813421342000660808000030B2
:101B620020008C1B013008002000E4012100111626
:101B72000800640080010131890BBB2D0034200074
:101B82002708A5002608A4008E310526080020009B
:101B92004508BB004608BC004708BD005E08863108
:101BA2007A26080020004508BB004608BC0047080A
:101BB200BD00550886317A26080020004508BB0082
:101BC2004608BC004708BD005B0886317A2608003B
:101BD200200069080319F42D84318B248D310130E2
:101BE2002000E902E92D0130080023001E119F1197
:101BF2009C0133309B001E131E129D179E1622005D
:101C02001D152100111208000430210091004030FE
:101C12008B000A302500930001309100920121309F
:101C2200200098008B17080023001E119F119C01B1
:101C320033309B0021008D1722009D1423009D1735
:101C4200210091160B1723001D131D1608002000FA
:101C52004508C6004608D5008D31B0258E312000DA
:101C6200C6004608E200D4010230A4000030A500FC
:101C7200013087314F27013008007108F7007008E2
:101C8200F6000130F4020030F53B740A0319750ABC
:101C92000319080076088600770887007208810019
:101CA2000130F6070030F73D422E2000C801033014
:101CB2004506031D672E023046064704031D672EA4
:101CC200D9010C1D662E0C11672E0C154808C50093
:101CD2004908C6004A08C700080020002508AB00D2
:101CE2002408AA000130A8020030A93B280A0319DF
:101CF200290A031908002A0886002B0887002608EB
:101D020081000130AA070030AB3D732E200032085B
:101D1200B6003108B5003308FF3EB400350886002E
:101D220036088700340881003508860036088700A7
:101D32004131810135088600360887004231810130
:101D42000800F40010307402031808007408F00050
:101D5200F101F035F10D5930700784008130713D89
:101D62008500003FF200013FF300F209F309720817
:101D72002100AB057308AC0508002000AF01B001DB
:101D82002B1CC72E2D08AF072E08B03D0130AD35F4
:101D9200AE0D890BC82E0130AC36AB0C890BCD2EA3
:101DA2002B082C04031DC12E3008AC002F08AB00F9
:101DB200080026302000A6002608A90020002508D9
:101DC200A7002408A600A40A0319A50A260884006D
:101DD200270885000008A8002808AA002A08031975
:101DE20008002A088731FF278E31DF2E20004508A0
:101DF200C6004608DC008D31F6258E310230200007
:101E0200C6004608C7004708BB004808BC0049088E
:101E1200BD005C0886317A268E31013A031D132FEC
:101E2200013008000030080020004508C6004608BE
:101E3200DB008E3115268F312000D9010230C60019
:101E42004608C7004708BB004808BC004908BD0057
:101E52005B0886317A268F31013A031D322F013019
:101E62000800003008002100E8016808031D08008E
:101E720068082000CE00CF01CE35CF0DC4304E070A
:101E8200840081304F3D8500013F8A00003F0A00F7
:101E92008F31013A0319080001302000CE004E08AC
:101EA2002100E807362F2000A7000830A5002508EA
:101EB200A800A9012708A5000730A536890B5E2FC7
:101EC20029352504A6002608A9000310A70D240819
:101ED2002902031C6E2F2408A9020130A802031D47
:101EE2005B2F290808002000C80103304506031DA6
:101EF2008C2F46084704031D8C2F0C18822F0C14BC
:101F0200852F0C1C852F0C102C30A4000130A5004D
:101F1200003087314F2720004808C5004908C60015
:101F22004A08C7000800A030F0000130F10000307C
:101F3200F200F3002930F4000030F5008E313E2625
:101F42008F31C930F0000130F1000030F200F300AF
:101F52002530F4000030F5008E313E262000D801F5
:101F6200FC01E601E801080020004508C600460819
:101F7200DE002C30A4000130A500003087314F274D
:101F82008F3102302000C6004608C7004708BB0058
:101F92004808BC004908BD005E0886317A268F31A8
:101FA200013A031DD62F013008000030080020003E
:101FB200C9018D31B0258F312000C8004808CD00FD
:101FC2004D0862060319F92FC901C90A4D03031905
:101FD200EC2F0630EE2F05302000C8004808CA005A
:101FE2004A08C5004B08C6004C08C7008D31D325EE
:0E1FF20020004D08C8004808E2004908080019
:020000040001F9
:02000E00E4FF0D
:00000001FF
