:040000000BEF00F012
:100008004F82FACF03F0FBCF04F064ED04F028EF41
:0200180006F0F0
:1003000000010002000400080010002000400080EE
:10031000000001000200040008001000200040005E
:1003200080B80C0000000000000000000000000089
:1003300000000000000000000000000000000000BD
:10034000000001010202020203030303030303038B
:100350008E0B540B800006EC0CB80C4661696C6582
:1003600064206F6E20617474656D707420746F20EA
:10037000506F73740A004661696C6564206F6E206B
:100380004E554C4C20706F696E7465720A00466160
:10039000696C656420496E697469616C697A61741D
:1003A000696F6E0A004F74686572204661696C75EA
:0503B00072650A000067
:1003B6001DC025F01EC026F020EE02F02550D926DD
:1003C6002650DA22DF50D8B45ED0F2CF23F0F29E68
:1003D60020EE01F02550D9262650DA22DF50216E74
:1003E600010E2124176E186A000E1822000E1A6ECE
:1003F600030E196E3BEC06F017501D24D96E1850EB
:100406001E20DA6E1FC0E1FF20C0E2FFDECFE6FF4E
:10041600DECFE6FFDECFE6FF20EE01F02550D9263F
:100426002650DA22DF2A25C0D9FF26C0DAFF10EED1
:1004360001F02550E1262650E222DE50E65CD8A0E7
:1004460016D020EE01F02550D9262650DA2225C0F6
:10045600E1FF26C0E2FFE750116E10EE01F02550D5
:10046600E1262650E222E75013EC06F0DF6E20EE7E
:1004760002F02550D9262650DA22DF06DF50246EF8
:1004860023C0F2FF12D01FC0D9FF20C0DAFF000E32
:10049600DF6E20EE01F01F50D9262050DA22000E22
:1004A600DE6E000EDD6E000E246E245012004050EB
:1004B6004110D8B4120040C036F041C037F036C003
:1004C60011F037C012F0B1EC04F0446E4450020D46
:1004D600600EF324D96E000EF420DA6EDE06000EEE
:1004E600DD5ADE50DE10D8A43DD0030E336E44C074
:1004F60034F0356A33C02EF034C02FF035C030F0FA
:100506004450020D210EF324F66E030EF420F76E0E
:1005160001D80CD00500FA6E0900F550FD6E0900F1
:10052600F550FE6EF850FF6EFA5012004450020D60
:10053600010EF324F66E030EF420F76E0900F5CFD4
:1005460092F00900F5CF93F00001921D0001946F1F
:100556000001931D0001956F0001945140160001A2
:10056600955141164450020D010EF324F66E030E0A
:10057600F420F76E0900F5CF92F00900F5CF93F05D
:100586000001921D0001946F0001931D0001956FFB
:100596000001945136160001955137163650371022
:1005A600D8B412008CD763D03CC011F03DC012F015
:1005B600B1EC04F0316E3150030D540EF324F66E97
:1005C600030EF420F76E0900F5CF1DF00A00F5CFF3
:1005D6001EF04C0E1F6E000E206EDBEC01F00009C3
:1005E600D8A41CD03150020D010EF324F66E030E72
:1005F600F420F76E0900F5CF96F00900F5CF97F0D5
:100606000001961D0001986F0001971D0001996F6A
:10061600000198513C16000199513D164CC016F048
:100626004DC017F04EC018F03150040D020EF326DF
:10063600000EF422500EF324F66E030EF420F76E2D
:1006460001D80CD00500FA6E0900F550FD6E0900C0
:10065600F550FE6EF850FF6EFA501200160ED96E67
:10066600000EDA6EDF50D8B402D0020E120066EC2D
:1006760006F00009D8B404D03C503D10D8A494D755
:100686008AEC05F0F4D792C013F093C014F06FEC27
:1006960006F0000E326E3250D8A45FD03250040DF0
:1006A600500EF324F66E030EF420F76E0900F55093
:1006B6000900F510D8B412D03250040D020EF326FC
:1006C600000EF422500EF324F66E030EF420F76E9D
:1006D6000900F5500900F510D8A402D0030E120047
:1006E6003250030D540EF324F66E030EF420F76E0B
:1006F6000900F5CF11F00A00F5CF12F03250030DC4
:10070600020EF326000EF422540EF324F66E030EA8
:10071600F420F76E0800F5CF13F0E3EC05F0325045
:10072600040D500EF324F66E030EF420F76E01D876
:100736000DD00500FA6E0900F550FD6E0900F55062
:10074600FE6EF850FF6EFA5032501200E806D8B42A
:1007560002D0050E1200322A9ED7000E12001DC0CE
:1007660026F01EC027F026C0D9FF27C0DAFF10EEFC
:1007760002F02650E1262750E222DE50E65CD8B091
:1007860046D0F2CF25F0F29E26C0D9FF27C0DAFF69
:10079600DF50226E2250136E146A20EE02F02650AD
:1007A600D9262750DA22DF50236E20EE01F026509C
:1007B600D9262750DA22DF50246E24502324116EC6
:1007C600126A1236EAEC04F0010E1124176E000EBE
:1007D6001220186E000E1A6E030E196E3BEC06F010
:1007E60017501D24D96E18501E20DA6E1FC0DEFF6A
:1007F60020C0DEFF21C0DEFF20EE02F02650D92603
:100806002750DA22DF2A25C0F2FF010E1200000E61
:100816001200D388D38AD38C000E806E000E816EB0
:10082600000E826E000E896E000E8A6E000E8B6EB2
:10083600C180C182C184C186000E926EBF0E936EC6
:10084600E30E946E8990899289849C0E0001936FC1
:100856003F0E926F46EC03F000019A6F00019A5129
:100866000001D8A421D0D6EC02F000019A6F1CD06A
:100876005B0E116E030E126EFEEC05F021D0760EA5
:10088600116E030E126EFEEC05F01AD08E0E116E6E
:10089600030E126EFEEC05F013D0A50E116E030EBC
:1008A600126EFEEC05F00CD000019A51010AD8B484
:1008B600DFD7020AD8B4E3D7060AD8B4E7D7EDD70C
:1008C600FFD70600E9CF05F0EACF06F0E1CF07F043
:1008D600E2CF08F0D9CF09F0DACF0AF0F3CF0BF068
:1008E600F4CF0CF0F6CF0DF0F7CF0EF0F8CF0FF0F7
:1008F600F5CF10F09EA414D0BF50016EBE50386ED6
:1009060001C039F0200E38243A6E4E0E39203B6E67
:100916003B50BF6E3AC0BEFF9E944B2A3E4A3F2ACA
:1009260010C0F5FF0FC0F8FF0EC0F7FF0DC0F6FFB1
:100936000CC0F4FF0BC0F3FF0AC0DAFF09C0D9FFF1
:1009460008C0E2FF07C0E1FF06C0EAFF05C0E9FFF5
:1009560004C0FBFF03C0FAFF4F921100800E186E11
:10096600030E1A6E1ABE31D01A50040DF3CF13F0CF
:1009760011C014F012C015F0132A03D0D890153206
:100986001432132EFBD714500F0B196E1950D8B40E
:100996001AD0FF0E136EFF0E146E1950156E166ADE
:1009A6001350152614501622410E1524F66E030E0A
:1009B6001620F76E0800F5CF17F01A50040DF35005
:1009C6001724186E02D01A06CDD718501200000E42
:1009D600166E12AE06D0116C121ED8B0122A010E77
:1009E600166E14AE04D0136C141ED8B0142A13500D
:1009F6001410D8B418D0010E156E04D0D890133642
:100A06001436152A14AEFAD71350115C1450125826
:100A1600D8A004D01350115E1450125AD890143234
:100A26001332152EF1D71650D8B404D0116C121EFD
:100A3600D8B0122A11C011F012C012F01200156EB1
:100A4600100E156012001550020D210EF324F66EDD
:100A5600030EF420F76E0900F5500900F510D8B41E
:100A6600120011501210D8B412001550020D600E6B
:100A7600F324D96E000EF420DA6E11C0DEFF12C028
:100A8600DDFF1550020D010EF324F66E030EF42061
:100A9600F76E0900F5CF13F00900F5CF14F01350E7
:100AA60040121450411212002D6E2D50D8A42DD094
:100AB6002D50030D540EF324F66E030EF420F76E3C
:100AC6000900F5CF1DF00A00F5CF1EF028C01FF073
:100AD60029C020F02AC021F0B2EC03F0E806D8A421
:100AE60014D02D50020D010EF324F66E030EF420E1
:100AF600F76E0900F5CF2BF00900F5CF2CF02B503F
:100B06003C122C503D12010E1200000E1200000E77
:100B1600116E1150D8A412001150020D570EF32475
:100B2600F66E030EF420F76E01D80CD00500FA6EAF
:100B36000900F550FD6E0900F550FE6EF850FF6E87
:100B4600FA501200E806D8B41200112AE2D7000EB5
:100B5600196E030E1618D8A410D017501810D8A462
:100B66000CD082B402D08B8401D08B94000E126E0E
:100B7600320E116E000E22EC05F019C016F01AC0E6
:100B860017F01BC018F01200316E31C046F0000E8F
:100B9600126E320E116E000E22EC05F0020E2E6E53
:100BA6002EC028F02FC029F030C02AF0465057EC4E
:100BB60005F0E806D8A402D0010E1200000E1200BD
:100BC60011C014F012C015F0130414C0D9FF15C0DB
:100BD600DAFFDF6E20EE01F01450D9261550DA2226
:100BE600000EDF6E20EE02F01450D9261550DA22E0
:100BF600000EDF6E1200130E136E000E146E03D07D
:100C0600155078EC06F011C0F6FF12C0F7FF114A36
:100C1600122A0800F5CF15F01550D8B41200F0D7F7
:100C2600126E080E136E000E146ED8901234143421
:100C3600146ED89012361150145CD8A002D0115000
:100C4600145E132EF2D71450120000EE60F0320E2E
:100C5600EE6AE806FDE100EE33F01C0EEE6AE806E9
:100C6600FDE14F904F92000EF86E00010CEF04F07C
:100C760017501902F3CF1BF0F4CF1CF017501A02CD
:100C8600F3501C2618501902F3501C261BC017F0EF
:100C96001CC018F01200040E9D6E400EF26E0A0E75
:100CA600BD6E010EBE6E000EBF6E210ECD6EF28EB3
:100CB60012002EC028F02FC029F030C02AF046506E
:100CC60057EC05F0120003D05AEC02F04B064B50DD
:100CD600D8A4FAD7010E120013C011F014C012F0F6
:0C0CE6004EEC06F01200000E120012008E
:020000040020DA
:08000000FFFFFFFFFFFFFFFF00
:020000040030CA
:0E000000FF081F1EFF8085FF0FC00FE00F409E
:00000001FF
